:10000000FAEF00F00000000000EF00F00000000038
:0A0010000000000000000000F3D71C
:06001C00000000001200CC
:100022000F0E0C6E470E0D6E0D2EFED70C2EFCD74A
:06003200000000001200B6
:0A003800210E0D6E0D2EFED71200F2
:100042000101AABF02D0819001D08180AABD02D055
:10005200819201D08182AABB02D0819401D0818495
:10006200AAB902D0819601D081869BB102D0818A41
:1000720001D0819A8188D1DF8198AAB702D081907C
:1000820001D08180AAB502D0819201D08182AAB327
:1000920002D0819401D08184AAB102D0819601D08C
:1000A20081869BB102D0818A01D0819A8188B5DF95
:0E00B20081989BA102D0B4DF01D0BDDF120007
:0E00C00001019B91A9C1AAF1BCDF9B81120036
:1000CE000900F5CFE6FF0006FBE10106F9E112009B
:1000DE009398939A93969394939293908198819AEE
:1000EE00819081928194819695DF94DF93DF818454
:1000FE00818681888CDF81988DDF818888DF819869
:10010E0089DF818884DF819885DF819681887FDF12
:10011E00819880DF81887BDF8198819481808188BE
:10012E0076DF819877DF81908186818870DF819874
:10013E00819681886CDF81986DDF818868DF819878
:10014E008186818864DF819865DF819681885FDF93
:10015E0081988180818281848186818858DF81980F
:08016E0059DF01019B81120021
:1001760010D0800E0101A46F1AD0C00EA46F17D044
:10018600940EA46F14D0D40EA46F11D0800EA46F59
:100196000ED00101A451010AECE0A451020AEDE0DF
:1001A600A451030AEDE0A451040AEDE0EFD7A5053A
:1001B600006EA451002600C0A4F100C0AAF13EDFE3
:1001C6009B91A86BA851A625E96E000EA721EA6EA1
:1001D600EE520BE0A851A625E96E000EA721EA6EA5
:0E01E600EECFA9F16ADFA82BEDD79B811200A6
:1001F40082EC04F0010E01019F6F9C6B9D6B9E6B62
:10020400A06BA16BA26BA36B0F0EC16E9480948242
:10021400958092909292809080925FDF010EAA6FF7
:100224000EDF0C0EAA6F0BDF010EA46F010EA56F7B
:10023400960EA66F000EA76F9CDF1F0E0B6E710E3D
:100244000C6E1E0E0D6E0D2EFED70C2EFCD70B2E33
:10025400FAD70000010EAA6FF2DE010EA46F020E9F
:10026400A56F910EA66F000EA76F83DF020EA46F19
:10027400020EA56F890EA66F000EA76F7ADF9F513D
:10028400010A58E1010EA46F020EA56FA70EA66F16
:10029400000EA76F6EDF020EA46F020EA56FCE0EC6
:1002A400A66F000EA76F65DF82A03ED09C51000AA6
:1002B4003BE1A051000A1BE19C51000A18E1010E28
:1002C400A46F010EA56FBD0EA66F000EA76F51DFC0
:1002D400020EA46F010EA56FAC0EA66F000EA76FE1
:1002E40048DF010EA06F010E9C6F010EA16FA0519B
:1002F400010A1AE19C51000A17E1010EA46F010ED4
:10030400A56F780EA66F000EA76F33DF020EA46FE1
:10031400010EA56F230EA66F000EA76F2ADFA06B38
:10032400010E9C6F020EA16F82B004D09C51010A91
:10033400D8B49C6B9F51020A5EE1010EA46F0B0EB0
:10034400A56F1C0EA66F000EA76F13DF020EA46F1D
:100354000B0EA56F150EA66F000EA76F0ADF82A005
:1003640044D09C51000A41E1A051000A1EE19C5175
:10037400000A1BE1010EAA6F62DE010EA46F010EDA
:10038400A56F340EA66F000EA76FF3DE020EA46FE6
:10039400010EA56F670EA66F000EA76FEADE010EB1
:1003A400A06F010E9C6F010EA26FA051010A1DE106
:1003B4009C51000A1AE1010EAA6F41DE010EA46FDE
:1003C400010EA56F560EA66F000EA76FD2DE020EA9
:1003D400A46F010EA56F450EA66F000EA76FC9DEB0
:1003E400A06B010E9C6F020EA26F82B004D09C51D0
:1003F400010AD8B49C6B9F51030A5EE1010EA46FFD
:100404000B0EA56F6B0EA66F010EA76FB2DE020E68
:10041400A46F0B0EA56F720EA66F010EA76FA9DE57
:1004240082A044D09C51000A41E1A051000A1EE17F
:100434009C51000A1BE1010EAA6F01DE010EA46F9C
:10044400010EA56F5A0EA66F010EA76F92DE020E63
:10045400A46F010EA56F380EA66F010EA76F89DE7B
:10046400010EA06F010E9C6F010EA36FA051010A33
:100474001DE19C51000A1AE1010EAA6FE0DD010E94
:10048400A46F010EA56F490EA66F010EA76F71DE52
:10049400020EA46F010EA56F8A0EA66F010EA76F40
:1004A40068DEA06B010E9C6F020EA36F82B004D0B5
:1004B4009C51010AD8B49C6B9F51010A27E182A286
:1004C4001FD09D51000A1CE1A151010A0BE19D516D
:1004D400000A08E1020E9F6FA06B010EAA6FAFDD48
:1004E400010E9D6FA151020A0BE19D51000A08E122
:1004F400030E9F6FA06B010EAA6FA1DD010E9D6F0D
:1005040082B204D09D51010AD8B49D6B9F51020A56
:1005140057E182A24FD09D51000A4CE1A251010A39
:1005240023E19D51000A20E18080010EAA6F87DD3E
:10053400010EA46F010EA56F790EA66F010EA76FB1
:1005440018DE0B0E0B6E260E0C6E5D0E0D6E0D2E50
:10055400FED70C2EFCD70B2EFAD700000000010E9C
:10056400AA6F6DDD010E9D6FA251020A23E19D5118
:10057400000A20E18082010EAA6F61DD010EA46FE2
:10058400010EA56FF80EA66F000EA76FF2DD0B0E1D
:100594000B6E260E0C6E5D0E0D6E0D2EFED70C2E00
:1005A400FCD70B2EFAD700000000010EAA6F47DD1E
:1005B400010E9D6F82B204D09D51010AD8B49D6B87
:1005C4009F51030A57E182A24FD09D51000A4CE18A
:1005D400A351010A23E19D51000A20E18090010EFC
:1005E400AA6F2DDD010EA46F010EA56F090EA66F73
:1005F400010EA76FBEDD0B0E0B6E260E0C6E5D0E8C
:100604000D6E0D2EFED70C2EFCD70B2EFAD7000044
:100614000000010EAA6F13DD010E9D6FA351020AA3
:1006240023E19D51000A20E18092010EAA6F07DDAB
:10063400010EA46F010EA56FD60EA66F000EA76F54
:1006440098DD0B0E0B6E260E0C6E5D0E0D6E0D2ED0
:10065400FED70C2EFCD70B2EFAD700000000010E9B
:10066400AA6FEDDC010E9D6F82B204D09D51010A88
:10067400D8B49D6B9F51010A52E183A04AD09E5188
:10068400000A47E1010EAA6FDADC010EA46F010E25
:10069400A56FE70EA66F000EA76F6BDD0B0E0B6E3A
:1006A400260E0C6E5D0E0D6E0D2EFED70C2EFCD795
:1006B4000B2EFAD700000000020EA46F010EA56FE6
:1006C400220EA66F010EA76F54DD150E0B6E4B0E96
:1006D4000C6EBE0E0D6E0D2EFED70C2EFCD70B2EFF
:1006E400FAD70000010EAA6FAADC010EA46F020E55
:1006F400A56F330EA66F010EA76F3BDD020EA46F2C
:10070400020EA56F1A0EA66F010EA76F32DD010E41
:100714009E6F83B004D09E51010AD8B49E6B9F5142
:10072400020A13E183A00BD09E51000A08E1010ED6
:100734009F6F010EAA6F83DCA06B010E9E6F83B0C6
:1007440004D09E51010AD8B49E6B9F51030A13E151
:1007540083A00BD09E51000A08E1010E9F6F010E89
:10076400AA6F6DDCA06B010E9E6F83B004D09E5106
:0A077400010AD8B49E6B83D5FFD7AD
:1009040010EE15F0860E006E020E016E7E0EF66E6F
:0E091400070EF76E000EF86E67EC00F0120092
:07077E004C4544203220002D
:070785004C45442031200027
:10078C003E4465736C696761205B454E5445525D10
:01079C00005C
:10079D00204C696761202020203E4C4544203120AB
:0107AD00004B
:1007AE00204C696761202020203E4C454420322099
:0107BE00003A
:1007BF00202020202020202020204C4544203120A4
:0107CF000029
:1007D000202020202020202020204C454420322092
:0107E0000018
:1007E100204C69676120202020202020202020200B
:0107F1000007
:0807F2004465736C6967610046
:0507FA004C696761007D
:1007FF00496E696369616C697A616E646F2E2E2E22
:01080F0000E8
:050810004C6967610066
:10081500204465736C6967612020202020202020FA
:0108250000D2
:100826003E4C696761202020205B454E5445525D51
:0108360000C1
:080837004465736C6967610000
:10083F0020204C6564204465736C696761646F2088
:01084F0000A8
:100850002A2A2A4552524F5220203430342A2A2A3A
:010860000097
:100861002020204C6564204C696761646F20202042
:010871000086
:1008720020204C6564204465736C696761646F2055
:010882000075
:080883004465736C69676100B4
:10088B002A2A2A5265736F6C76656E646F2A2A2A40
:01089B00005C
:05089C004C69676100DA
:1008A100202020202020202020204C4544203220C0
:0108B1000046
:1008B200202020202020202020204C4544203120B0
:0108C2000035
:1008C300204465736C696761203E4C4544203120A8
:0108D3000024
:0708D4004C454420312000D7
:0708DB004C454420322000CF
:1008E2002020204C6564204C696761646F202020C1
:0108F2000005
:1008F300204465736C696761203E4C454420322077
:0109030000F3
:020000040030CA
:0E000000000C1F1EFF8381FF0FC00FE00F409A
:00000001FF
