:10000000F5EF00F00000000000EF00F0000000003D
:0A0010000000000000000000F3D71C
:06001C00000000001200CC
:100022000F0E0C6E470E0D6E0D2EFED70C2EFCD74A
:06003200000000001200B6
:0A003800210E0D6E0D2EFED71200F2
:1000420028BE02D0819001D0818028BC02D081924A
:1000520001D0818228BA02D0819401D0818428B84B
:1000620002D0819601D081861EB002D0818A01D051
:10007200819A8188D2DF819828B602D0819001D0FE
:10008200818028B402D0819201D0818228B202D02C
:10009200819401D0818428B002D0819601D08186DA
:1000A2001EB002D0818A01D0819A8188B6DF819800
:0C00B2001EA002D0B5DF01D0BEDF12009E
:0C00BE001E9027C028F0BEDF1E8012003C
:1000CA000900F5CFE6FF0006FBE10106F9E112009F
:1000DA009398939A93969394939293908198819AF2
:1000EA00819081928194819697DF96DF95DF818452
:1000FA00818681888EDF81988FDF81888ADF819867
:10010A008BDF818886DF819887DF8196818881DF0E
:10011A00819882DF81887DDF8198819481808188BE
:10012A0078DF819879DF81908186818872DF819872
:10013A00819681886EDF81986FDF81886ADF819876
:10014A008186818866DF819867DF8196818861DF91
:10015A008198818081828184818681885ADF819811
:06016A005BDF1E801200A5
:100170000FD0800E226E19D0C00E226E16D0940EB3
:10018000226E13D0D40E226E10D0800E226E0DD0AF
:100190002250010AEEE02250020AEEE02250030A49
:1001A000EEE02250040AEEE0F0D72304006E225065
:1001B000002600C022F000C028F043DF1E90266A0F
:1001C00026502424E96E000E2520EA6EEE520BE044
:1001D00026502424E96E000E2520EA6EEECF27F08B
:0A01E0006EDF262AEDD71E80120004
:1001EA00540E156E650E166E730E176E740E186E1B
:1001FA00610E196E6E0E1A6E640E1B6E6F0E1C6EF9
:10020A001D6A1F6A206A0F0EC112938C938E60DFDB
:10021A00010E286E11DF0C0E286E0EDF010E226E03
:10022A00010E236E150E246E000E256E9CDF330E12
:10023A000B6EBB0E0C6EDF0E0D6E0D2EFED70C2E46
:10024A00FCD70B2EFAD70000000081AC12D01F5049
:10025A00000A0FE1010E1F6E020E0B6E040E0C6EE9
:10026A00BA0E0D6E0D2EFED70C2EFCD70B2EFAD71A
:10027A00000081BC11D01F50010A0EE11F6A020E54
:10028A000B6E040E0C6EBA0E0D6E0D2EFED70C2ED2
:10029A00FCD70B2EFAD7000081AE12D02050000AEC
:1002AA000FE1010E206E020E0B6E040E0C6EBA0EDA
:1002BA000D6E0D2EFED70C2EFCD70B2EFAD7000092
:1002CA0081BE11D02050010A0EE1206A020E0B6E87
:1002DA00040E0C6EBA0E0D6E0D2EFED70C2EFCD728
:1002EA000B2EFAD70000010E286EA6DE010E226E32
:1002FA00040E236E21C024F0000E256E34DF020E98
:10030A000B6E040E0C6EBA0E0D6E0D2EFED70C2E51
:0C031A00FCD70B2EFAD700008AD7FFD7C3
:020000040030CA
:0E000000000C1F1EFF8381FF0FC00FE00F409A
:00000001FF
