:100000000EEF00F00000000000EF00F00000000024
:0A0010000000000000000000F3D71C
:10001C00156A166A010E176E0F0EC16E93809382CD
:10002C00956A836A81A013D01550000A10E1010E65
:10003C00156E172A020E0B6E040E0C6EBA0E0D6E98
:10004C000D2EFED70C2EFCD70B2EFAD7000081B04C
:10005C0011D01550010A0EE1156A020E0B6E040E3A
:10006C000C6EBA0E0D6E0D2EFED70C2EFCD70B2E71
:10007C00FAD7000081A213D01650000A10E1010E2D
:10008C00166E1706020E0B6E040E0C6EBA0E0D6E6B
:10009C000D2EFED70C2EFCD70B2EFAD7000081B2FA
:1000AC0011D01650010A0EE1166A020E0B6E040EE8
:1000BC000C6EBA0E0D6E0D2EFED70C2EFCD70B2E21
:1000CC00FAD700001750010A0EE1836A020E0B6E7C
:1000DC00040E0C6EBA0E0D6E0D2EFED70C2EFCD728
:1000EC000B2EFAD700001750020A0FE1010E836E97
:1000FC00020E0B6E040E0C6EBA0E0D6E0D2EFED78C
:10010C000C2EFCD70B2EFAD700001750030A0FE168
:10011C00030E836E020E0B6E040E0C6EBA0E0D6E79
:10012C000D2EFED70C2EFCD70B2EFAD70000175035
:10013C00040A0FE1070E836E020E0B6E040E0C6E9A
:10014C00BA0E0D6E0D2EFED70C2EFCD70B2EFAD739
:10015C0000001750050A0FE10F0E836E020E0B6E96
:10016C00040E0C6EBA0E0D6E0D2EFED70C2EFCD797
:10017C000B2EFAD700001750060A0FE11F0E836EE4
:10018C00020E0B6E040E0C6EBA0E0D6E0D2EFED7FB
:10019C000C2EFCD70B2EFAD700001750070A0FE1D4
:1001AC003F0E836E020E0B6E040E0C6EBA0E0D6EAD
:1001BC000D2EFED70C2EFCD70B2EFAD700001750A5
:1001CC00080A0FE17F0E836E020E0B6E040E0C6E8E
:1001DC00BA0E0D6E0D2EFED70C2EFCD70B2EFAD7A9
:1001EC0000001750090A0FE1FF0E836E020E0B6E12
:1001FC00040E0C6EBA0E0D6E0D2EFED70C2EFCD707
:10020C000B2EFAD700001750000A0FE1010E176EE3
:10021C00020E0B6E040E0C6EBA0E0D6E0D2EFED76A
:10022C000C2EFCD70B2EFAD7000017500A0A0FE140
:10023C00090E176E020E0B6E040E0C6EBA0E0D6EBE
:10024C000D2EFED70C2EFCD70B2EFAD70000EAD6BB
:02025C00FFD7CA
:020000040030CA
:0E000000000C1F1EFF8381FF0FC00FE00F409A
:00000001FF
