:100000000EEF00F00000000000EF00F00000000024
:0A0010000000000000000000F3D71C
:10001C00010E016E0F0EC16E93809590839081A09E
:10002C002BD00150010A28E183A012D00150010A03
:10003C000FE18390016A020E0B6E040E0C6EBA0E69
:10004C000D6E0D2EFED70C2EFCD70B2EFAD7000002
:10005C0083B012D00150010A0FE18380016A020EB5
:10006C000B6E040E0C6EBA0E0D6E0D2EFED70C2EF2
:10007C00FCD70B2EFAD7000081B005D00150000A36
:0A008C0002E1010E016ECBD7FFD791
:020000040030CA
:0E000000000C1F1EFF8381FF0FC00FE00F409A
:00000001FF
