:10000000F5EF00F00000000000EF00F0000000003D
:0A0010000000000000000000F3D71C
:06001C00000000001200CC
:100022000F0E0C6E470E0D6E0D2EFED70C2EFCD74A
:06003200000000001200B6
:0A003800210E0D6E0D2EFED71200F2
:1000420021BE02D0819001D0818021BC02D0819258
:1000520001D0818221BA02D0819401D0818421B859
:1000620002D0819601D081861AB002D0818A01D055
:10007200819A8188D2DF819821B602D0819001D005
:10008200818021B402D0819201D0818221B202D03A
:10009200819401D0818421B002D0819601D08186E1
:1000A2001AB002D0818A01D0819A8188B6DF819804
:0C00B2001AA002D0B5DF01D0BEDF1200A2
:0C00BE001A9020C021F0BEDF1A80120052
:1000CA000900F5CFE6FF0006FBE10106F9E112009F
:1000DA009398939A93969394939293908198819AF2
:1000EA00819081928194819697DF96DF95DF818452
:1000FA00818681888EDF81988FDF81888ADF819867
:10010A008BDF818886DF819887DF8196818881DF0E
:10011A00819882DF81887DDF8198819481808188BE
:10012A0078DF819879DF81908186818872DF819872
:10013A00819681886EDF81986FDF81886ADF819876
:10014A008186818866DF819867DF8196818861DF91
:10015A008198818081828184818681885ADF819811
:06016A005BDF1A801200A9
:100170000FD0800E1B6E19D0C00E1B6E16D0940EC1
:100180001B6E13D0D40E1B6E10D0800E1B6E0DD0C4
:100190001B50010AEEE01B50020AEEE01B50030A5E
:1001A000EEE01B50040AEEE0F0D71C04006E1B507A
:1001B000002600C01BF000C021F043DF1A901F6A28
:1001C0001F501D24E96E000E1E20EA6EEE520BE059
:1001D0001F501D24E96E000E1E20EA6EEECF20F0A7
:0A01E0006EDF1F2AEDD71A8012000F
:1001EA004C0E156E430E166E440E176E186A0F0EDD
:1001FA00C1126EDF010E216E1FDF010E1B6E070E8C
:10020A001C6E150E1D6E000E1E6EADDF196A070EEE
:10021A00195C13E21C0E216E0FDF060E0B6E130E15
:10022A000C6EAD0E0D6E0D2EFED70C2EFCD70B2EBE
:10023A00FAD700000000192AEAD7196A0D0E195CCC
:10024A0013E2180E216EF8DE060E0B6E130E0C6EFC
:10025A00AD0E0D6E0D2EFED70C2EFCD70B2EFAD737
:10026A0000000000192AEAD7196A060E195C13E27F
:10027A001C0E216EE1DE060E0B6E130E0C6EAD0E19
:10028A000D6E0D2EFED70C2EFCD70B2EFAD70000C2
:0A029A000000192AEAD7BAD7FFD7EF
:020000040030CA
:0E000000000C1F1EFF8381FF0FC00FE00F409A
:00000001FF
