:100000000DEF06F00000000000EF00F0000000001F
:0A0010000000000000000000F3D71C
:06001C00000000001200CC
:0A002200210E0D6E0D2EFED7120008
:10002C000F0E0C6E470E0D6E0D2EFED70C2EFCD740
:06003C00000000001200AC
:100042000B840BAE2CEF00F0010E036E026A016A04
:0A005200006A0A360232FF0E1200A7
:08005C000AAE029E000E120024
:1000640000017EBF02D0819001D081807EBD02D08C
:10007400819201D081827EBB02D0819401D081849F
:100084007EB902D0819601D081865DB002D0818A8A
:1000940001D0819A8188C0DF81987EB702D0819097
:1000A40001D081807EB502D0819201D081827EB35D
:1000B40002D0819401D081847EB102D0819601D096
:1000C40081865DB002D0818A01D0819A8188A4DFC3
:0E00D40081985DA002D0A8DF01D0A1DF12004C
:0E00E200026A016A006A086A036A000E1200D0
:1000F0000B820BAE82EF00F00368026801680068B3
:080100000A360232FF0E120064
:100108007AC004F07BC005F004C002F005C003F01B
:10011800044A052A7CC000F07DC001F000017C4B38
:100128007D2B00C0E9FF01C0EAFF02C0E1FF03C068
:10013800E2FFEECFE6FF02C0E9FF03C0EAFFEE529E
:0E01480001E0E2D77AC000F07BC001F01200A7
:0C0156005D907AC07EF083DF5D801200B7
:100162000A6A0350D8A40A800750D8A40A820A5007
:10017200D8B414EF01F0030AD8B4CDEF00F00AB0FE
:10018200C8EF00F006AE12EF01F010EF01F002AE80
:1001920010EF01F012EF01F00250800B0A6E029E86
:1001A2000650800B069E0A18D8B4DEEF00F00A5003
:1001B200D8B410EF01F012EF01F00750035CD8B48D
:1001C200E8EF00F0D8A004EF01F00AEF01F00650CA
:1001D200025CD8B4F2EF00F0D8A004EF01F00AEF0D
:1001E20001F00550015CD8B4FCEF00F0D8A004EF98
:1001F20001F00AEF01F00450005CD8B414EF01F0F2
:10020200D8B00AEF01F00A52D8B412EF01F010EFA1
:1002120001F00A52D8B410EF01F012EF01F0D880C9
:0E0222001200D8901200D880D884120012006A
:080230000B6A0B86FF0E1200A1
:100238000C6A0E6A0250D8A435EF01F001C002F032
:1002480000C001F0006A0E860250D8A435EF01F014
:1002580001C002F0016A0E960E880250D8B447EF2A
:1002680001F00E50035ED8A4D8A04CEF01F0D8904E
:1002780002BE51EF01F0003601360236032E3CEF84
:1002880001F04CEF01F0010E0C6E27DF54EF01F086
:10029800020E0C6ED2DE54EF01F0040E0C6EDADEA4
:0202A800120042
:1002AA000D6A086A0050D8B4000C04180A6E0ABE17
:1002BA000D1E0B6A04AE02D0041E042A00AE02D040
:1002CA00001E002A005004100A6E0ABE1FD00450F5
:1002DA00085E003600340836045008260036060E3A
:1002EA000C6E00340836045000B0085E00A00826E0
:1002FA0000360C2EF6D700A008260BB015D00DAE8E
:10030A00000C001E002A081E082A000C04AE09D0A0
:10031A0000BE04D00050086E006AF1D7006A002AB5
:10032A00000C001E0B2AD3D7082A0450085CD8A454
:0E033A00E6D7086A002A00AEE2D7FF0C1200D8
:10034800086A096A000E0762036429EF02F0025086
:1003580006180A6E075003267E0ED8A0BAEF01F0E1
:10036800035ED8B02DEF02F0BEEF01F0035ED8A017
:1003780031EF02F0028E068E02C00EF001C00BF0C3
:1003880000C00DF000500402F4CF0CF0015005023B
:10039800F4CF00F0F3CF08F00402F3500C26F45029
:1003A8000822000E00220D500502F3500C26F450CE
:1003B8000822000E002202500402F3500826F450CE
:1003C800002202500502016A000E0122F3500026A5
:1003D800F45001220D500602F3500826F450002272
:1003E800026A000E012202220B500602F350002678
:1003F800F4500122000E02220E500602F35001268C
:10040800F450022202BE11EF02F00836003601361F
:1004180002360306D8B431EF02F024EF02F0D88098
:10042800800E08640030000E002201220222D8A0AB
:1004380024EF02F0023201320032034A2DEF02F0BB
:100448000AAE029E000E33EF02F0010E46DE33EFD5
:1004580002F0020E49DE33EF02F0040EEEDD120068
:0C0468000E0E0D6E0D2EFED700001200CF
:100474000900F5CFE6FF0006FBE10106F9E11200F1
:100484009398939A93969394939293908198819A44
:100494008190819281948196C7DDC6DDC5DD81841A
:1004A40081868188B9DD8198BFDD8188B5DD819839
:1004B400BBDD8188B1DD8198B7DD81968188ACDDB3
:1004C4008198B2DD8188A8DD8198819481808188BA
:1004D400A3DD8198A9DD8190818681889DDD819845
:1004E4008196818899DD81989FDD818895DD819849
:1004F4008186818891DD819897DD819681888CDD64
:1005040081988180818281848186818885DD81983A
:060514008BDD5D8012008A
:10051A0010D0800E00016F6F1AD0C00E6F6F17D007
:10052A00940E6F6F14D0D40E6F6F11D0800E6F6F50
:10053A000ED000016F51010AECE06F51020AEDE0A2
:10054A006F51030AEDE06F51040AEDE0EFD7700531
:10055A00006E6F51002600C06FF000C07EF07DDD96
:10056A005D905E6A5E507125E96E000E7221EA6E38
:10057A00EE520BE05E507125E96E000E7221EA6EB2
:0E058A00EECF7AF0E3DD5E2AEDD75D80120041
:100598000450000A12E10550000A0FE10650000A53
:1005A8000CE10750000A09E1FF0E006EFF0E016E14
:1005B8007F0E026EFF0E036EA4D0086A096A075008
:1005C800D8B477EF03F00350D8B47BEF03F00250B0
:1005D80006180A6E028E068E0E6A02C008F001C066
:1005E8000CF000C00DF004500D5E0550D8A0053C7D
:1005F8000C5E0650D8A0063C085E086A0C6A0D6AB4
:10060800D8A00EEF03F0D89002320132003208323F
:10061800010E0E6E0750035ED8A01BEF03F07E0E8E
:100628000E240326D8B07FEF03F021EF03F07E0EEF
:100638000E240326D8A083EF03F0180E0B6E0D3698
:100648000C3608360036013602360E360450005E87
:100658000550D8A0053C015E0650D8A0063C025EB5
:1006680006340E120EA03CEF03F00D8047EF03F0A6
:10067800045000260550D8B0053C01260650D8B0D5
:10068800062802260D900B2E23EF03F06DEF03F0E2
:10069800D8900036013602360E360450005E0550FA
:1006A800D8A0053C015E0650D8A0063C025E063480
:1006B8000E10010B0D26D8B00C2AD8B4082AD8A4DD
:1006C8006DEF03F008320C320D32032AD8B47FEFF5
:1006D80003F00AAE089E0850026E0C50016E0D50D1
:1006E800006E85EF03F0010E9FDD85EF03F0020E2B
:1006F800F4DC85EF03F0040EF7DC85EF03F0080E59
:040708009CDC120063
:10070C000001606B796B6FC075F070C076F071C0D2
:10071C0077F072C078F07851FF0A08E17751FF0A40
:10072C0005E17651FF0A02E17551FF0A0CE173C035
:10073C007AF074C07BF0480E7C6F000E7D6FDEDCAF
:10074C00030E006EEBD1010E5E6E77AF0ED0800EF5
:10075C007719006E00C077F05E2A73C0E1FF74C099
:10076C00E2FF2D0EE66E734B742B000E006E7819A3
:10077C0008E10050771905E10050761902E1755136
:10078C00000A0BE173C07AF074C07BF04C0E7C6FE6
:10079C00000E7D6FB3DC006AC1D17851FF0A08E10D
:1007AC007751000A05E17651000A02E17551000A01
:1007BC000CE173C07AF074C07BF0430E7C6F000EBA
:1007CC007D6F9CDC5EC000F0A9D1000E046E000EA3
:1007DC00056E000E066E7F0E076E75C000F076C0BB
:1007EC0001F077C002F078C003F0B5DC010ED8B090
:1007FC00000E006E00521BE075C000F076C001F0D8
:10080C0077C002F078C003F0000E046E000E056E87
:10081C00200E066E820E076E91DD00C075F001C0D1
:10082C0076F002C077F003C078F07907CED7000ECF
:10083C00046E000E056E200E066E820E076E75C0DD
:10084C0000F076C001F077C002F078C003F083DCD2
:10085C00000ED8B0010E006E00521BE075C000F007
:10086C0076C001F077C002F078C003F0CD0E046EB4
:10087C00CC0E056E4C0E066E7B0E076E5FDD00C057
:10088C0075F001C076F002C077F003C078F0792BD8
:10089C00CED7FF0E7515086EFF0E7615096E7F0EFE
:1008AC0077150A6E000E78150B6E08C004F009C09F
:1008BC0005F00AC006F00BC007F0043604900536AC
:1008CC0006360736000E7515006E000E7615016E95
:1008DC00000E7715026EFF0E7815036E00C075F0D2
:1008EC0001C076F002C077F003C078F004507511A7
:1008FC00006E05507611016E06507711026E07508E
:10090C007811036E00C075F001C076F002C077F06C
:10091C0003C078F07F0E785D006E00C05FF0010EB2
:10092C00786F00C004F075C000F076C001F077C09D
:10093C0002F078C003F0045007E000360090013656
:10094C0002360336FF0FF8D700C075F001C076F001
:10095C0002C077F003C078F073C0E1FF74C0E2FF0F
:10096C007851300FE66E734B742B800E7919006E34
:10097C00800E010A005C08E3800E060A006E800EF1
:10098C007919005C01E30AD073C0E1FF74C0E2FF87
:10099C002E0EE66E734B742B010E606F060E5F6E9F
:1009AC005F50000A54E0786B75C000F076C001F01F
:1009BC0077C002F078C003F00036009001360236A2
:1009CC000336003600900136023603367551002688
:1009DC0076510122775102227851032200C075F022
:1009EC0001C076F002C077F003C078F075C000F05B
:1009FC0076C001F077C002F078C003F000360090AA
:100A0C0001360236033600C075F001C076F002C024
:100A1C0077F003C078F073C0E1FF74C0E2FF785147
:100A2C00300FE66E734B742B6051000A0EE17907A0
:100A3C007951000A0AE173C0E1FF74C0E2FF2E0E87
:100A4C00E66E734B742B010E606F5F06A9D7FF0E19
:100A5C007325E96EFF0E7421EA6EEE50300A05E143
:100A6C00010E735F000E745BF2D7FF0E7325E96EF7
:100A7C00FF0E7421EA6EEE502E0A04E1010E735F34
:100A8C00000E745B7951000A43E073C0E1FF74C03F
:100A9C00E2FF650EE66E734B742B800E7919006EB7
:100AAC00800E000A005C0BE273C0E1FF74C0E2FF31
:100ABC002D0EE66E734B742B79510008796F79C04B
:100ACC005FF0800E090A006E800E7919005C0FE24F
:100ADC000A0E046E5FC000F055EC01F073C0E1FF2C
:100AEC0074C0E2FF0050300FE66E734B742B0A0E8D
:100AFC00046E5FC000F055EC01F008C000F073C04C
:100B0C00E1FF74C0E2FF0050300FE66E734B742BA4
:0E0B1C0073C0E1FF74C0E2FFE66A006A1200D7
:100B2A0010D0800E00016F6F1AD0C00E6F6F17D0F1
:100B3A00940E6F6F14D0D40E6F6F11D0800E6F6F3A
:100B4A000ED000016F51010AECE06F51020AEDE08C
:100B5A006F51030AEDE06F51040AEDE0EFD770051B
:100B6A00006E6F51002600C06FF05D8000C07EF0FD
:100B7A0032EC00F05D9071C07EF032EC00F05D80E6
:020B8A00120057
:100B8C00FF0E0001616FFF0E626FFF0E636FFF0EB1
:100B9C00646FC26A471C006E0050C116070EC0126B
:060BAC00C08EC2801200A1
:100BB200C26A471C006E0050C116070EC012C08EDA
:100BC2005EC000F000360090003600900050C21265
:100BD200C28049DCC282C2A201D0FDD7C4CF01F0DB
:0E0BE200006AC3500012000E0112C2901200F1
:100BF0000050086E0150006E016A026A036A0B6AB7
:100C00000C6A960E036E0A6A00C001F008C000F07C
:0A0C1000086A026A1CEC01F01200F1
:100C1A00FEEC06F09280010EC26E0E0EC16EAA0E96
:100C2A00C06E2BDC010E00017E6F32EC00F00C0E60
:100C3A007E6F32EC00F0010E6F6F010E706F390E8D
:100C4A00716F000E726F64DC060E0B6E130E0C6E63
:100C5A00AD0E0D6E0D2EFED70C2EFCD70B2EFAD72D
:100C6A0000000000010E6F6F010E706F150E716F9C
:100C7A00000E726F4DDC060E0B6E130E0C6EAD0E6F
:100C8A000D6E0D2EFED70C2EFCD70B2EFAD70000B8
:100C9A000000010E6F6F010E706F200E716F000E53
:100CAA00726F36DC060E0B6E130E0C6EAD0E0D6EE9
:100CBA000D2EFED70C2EFCD70B2EFAD70000000003
:100CCA00010E6F6F010E706F2C0E716F000E726F36
:100CDA001FDC060E0B6E130E0C6EAD0E0D6E0D2E76
:100CEA00FED70C2EFCD70B2EFAD700000000010EFF
:100CFA007E6F32EC00F045DF5E6A56DF74DF000E6D
:100D0A00046E000E056E7A0E066E870E076EA4EC50
:100D1A0001F0000E046E000E056E000E066E890EBE
:100D2A00076E35DC00C06FF001C070F002C071F0D0
:100D3A0003C072F0650E0001736F000E746FE1DC80
:100D4A00696B010E6F6F010E706F4E0E716F000EA0
:100D5A00726F8DEC02F0020E6F6F070E706F650EE8
:100D6A00716F000E726F8DEC02F0020E6F6F0C0E37
:100D7A00706FDF0E716FD4DE020E6F6F0D0E706F23
:100D8A005B0E716F000E726F8DEC02F0020E0B6E2D
:100D9A00040E0C6EBA0E0D6E0D2EFED70C2EFCD75D
:0A0DAA000B2EFAD70000A7D7FFD7E1
:100DFC0010EE15F0480E006E010E016EB40EF66E7C
:0E0E0C000D0EF76E000EF86E3AEC02F01200BA
:0B0DB400496E696369616E646F2E0078
:0C0DBF00496E696369616E646F2E2E003E
:0D0DCB00496E696369616E646F2E2E2E0003
:0A0DD800496E696369616E646F0083
:040DE200494E460030
:010DE60030DC
:040DE7004E614E000B
:020DEB003000D6
:0D0DED0054656D70657261747572613A0035
:020DFA004300B4
:020000040030CA
:0E000000000C1F1EFF8381FF0FC00FE00F409A
:00000001FF
