:10000000A5EF05F00000000000EF00F00000000088
:0A0010000000000000000000F3D71C
:06001C00000000001200CC
:100022000F0E0C6E470E0D6E0D2EFED70C2EFCD74A
:06003200000000001200B6
:0A003800210E0D6E0D2EFED71200F2
:080042000AAE029E000E12003E
:0E004A00026A016A006A086A036A000E120068
:100058000B840BAE37EF00F0010E036E026A016AE3
:0A006800006A0A360232FF0E120091
:10007200000174BF02D0819001D0818074BD02D092
:10008200819201D0818274BB02D0819401D081849B
:1000920074B902D0819601D081864DB002D0818A96
:1000A20001D0819A8188B9DF819874B702D081909A
:1000B20001D0818074B502D0819201D0818274B363
:1000C20002D0819401D0818474B102D0819601D092
:1000D20081864DB002D0818A01D0819A81889DDFCC
:0E00E20081984DA002D09CDF01D0A5DF120056
:1000F0000B820BAE82EF00F00368026801680068B3
:080100000A360232FF0E120064
:080108000B6A0B86FF0E1200CA
:10011000086A096A000E076203640DEF01F00250DD
:1001200006180A6E075003267E0ED8A09EEF00F038
:10013000035ED8B011EF01F0A2EF00F0035ED8A08B
:1001400015EF01F0028E068E02C00EF001C00BF01A
:1001500000C00DF000500402F4CF0CF00150050275
:10016000F4CF00F0F3CF08F00402F3500C26F45063
:100170000822000E00220D500502F3500C26F45008
:100180000822000E002202500402F3500826F45008
:10019000002202500502016A000E0122F3500026DF
:1001A000F45001220D500602F3500826F4500022AC
:1001B000026A000E012202220B500602F3500026B2
:1001C000F4500122000E02220E500602F3500126C6
:1001D000F450022202BEF5EF00F008360036013678
:1001E00002360306D8B415EF01F008EF01F0D8800D
:1001F000800E08640030000E002201220222D8A0E6
:1002000008EF01F0023201320032034A11EF01F02F
:100210000AAE029E000E17EF01F0010E16DF17EF77
:1002200001F0020E65DF17EF01F0040E15DF12007A
:100230000D6A086A0050D8B4000C04180A6E0ABE91
:100240000D1E0B6A04AE02D0041E042A00AE02D0BA
:10025000001E002A005004100A6E0ABE1FD004506F
:10026000085E003600340836045008260036060EB4
:100270000C6E00340836045000B0085E00A008265A
:1002800000360C2EF6D700A008260BB015D00DAE08
:10029000000C001E002A081E082A000C04AE09D01B
:1002A00000BE04D00050086E006AF1D7006A002A30
:1002B000000C001E0B2AD3D7082A0450085CD8A4CF
:0E02C000E6D7086A002A00AEE2D7FF0C120053
:1002CE000C6A0E6A0250D8A480EF01F001C002F051
:1002DE0000C001F0006A0E860250D8A480EF01F033
:1002EE0001C002F0016A0E960E880250D8B492EF49
:1002FE0001F00E50035ED8A4D8A097EF01F0D8906D
:10030E0002BE9CEF01F0003601360236032E87EF57
:10031E0001F097EF01F0010E0C6E90DE9FEF01F0F1
:10032E00020E0C6E92DE9FEF01F0040E0C6E82DE5A
:02033E001200AB
:100340000A6A0350D8A40A800750D8A40A820A5027
:10035000D8B403EF02F0030AD8B4BCEF01F00AB03E
:10036000B7EF01F006AE01EF02F0FFEF01F002AED1
:10037000FFEF01F001EF02F00250800B0A6E029EC7
:100380000650800B069E0A18D8B4CDEF01F00A5033
:10039000D8B4FFEF01F001EF02F00750035CD8B4CE
:1003A000D7EF01F0D8A0F3EF01F0F9EF01F006501C
:1003B000025CD8B4E1EF01F0D8A0F3EF01F0F9EF5F
:1003C00001F00550015CD8B4EBEF01F0D8A0F3EFD9
:1003D00001F0F9EF01F00450005CD8B403EF02F033
:1003E000D8B0F9EF01F00A52D8B401EF02F0FFEFF4
:1003F00001F00A52D8B4FFEF01F001EF02F0D8800B
:0E0400001200D8901200D880D884120012008A
:10040E0070C004F071C005F004C002F005C003F026
:10041E00044A052A72C000F073C001F00001724B4D
:10042E00732B00C0E9FF01C0EAFF02C0E1FF03C069
:10043E00E2FFEECFE6FF02C0E9FF03C0EAFFEE5295
:0E044E0001E0E2D770C000F071C001F01200B2
:0C045C004D9070C074F007DE4D8012005F
:1004680010D0800E0001626F1AD0C00E626F17D0D4
:10047800940E626F14D0D40E626F11D0800E626F2A
:100488000ED000016251010AECE06251020AEDE06F
:100498006251030AEDE06251040AEDE0EFD763050B
:1004A800006E6251002600C062F000C074F0DDDD0D
:1004B8004D90666B66516425E96E000E6521EA6E03
:1004C800EE520BE066516425E96E000E6521EA6E76
:0E04D800EECF70F0BFDF662BEDD74D80120027
:1004E6000900F5CFE6FF0006FBE10106F9E112007F
:1004F6009398939A93969394939293908198819AD2
:10050600819081928194819689DD88DD87DD818461
:100516008186818880DD819881DD81887CDD819876
:100526007DDD818878DD819879DD8196818873DD2E
:10053600819874DD81886FDD8198819481808188BE
:100546006ADD81986BDD81908186818864DD819882
:100556008196818860DD819861DD81885CDD819886
:100566008186818858DD819859DD8196818853DDA1
:100576008198818081828184818681884CDD819801
:060586004DDD4D80120066
:10058C0000016E6B6F6B62C06AF063C06BF064C08D
:10059C006CF065C06DF06D51FF0A08E16C51FF0AFB
:1005AC0005E16B51FF0A02E16A51FF0A0CE166C0DA
:1005BC0070F067C071F0400E726F000E736F21DF28
:1005CC00030E006EE9D1010E686F6CAF0ED0800E79
:1005DC006C19006E00C06CF0682B66C0E1FF67C040
:1005EC00E2FF2D0EE66E664B672B000E006E6D194A
:1005FC0008E100506C1905E100506B1902E16A51D9
:10060C00000A0BE166C070F067C071F03E0E726FAD
:10061C00000E736FF6DE006ABFD16D51FF0A08E160
:10062C006C51000A05E16B51000A02E16A51000AA3
:10063C000CE166C070F067C071F0490E726F000E6D
:10064C00736FDFDE68C000F0A7D1000E046E000EE1
:10065C00056E000E066E7F0E076E6AC000F06BC052
:10066C0001F06CC002F06DC003F064DE010ED8B076
:10067C00000E006E00521BE06AC000F06BC001F06F
:10068C006CC002F06DC003F0000E046E000E056E1F
:10069C00200E066E820E076E35DD00C06AF001C0BA
:1006AC006BF002C06CF003C06DF06F07CED7000E7C
:1006BC00046E000E056E200E066E820E076E6AC06A
:1006CC0000F06BC001F06CC002F06DC003F032DEC4
:1006DC00000ED8B0010E006E00521BE06AC000F094
:1006EC006BC001F06CC002F06DC003F0CD0E046E57
:1006FC00CC0E056E4C0E066E7B0E076E03DD00C035
:10070C006AF001C06BF002C06CF003C06DF06F2B8F
:10071C00CED7FF0E6A15086EFF0E6B15096E7F0E95
:10072C006C150A6E000E6D150B6E08C004F009C036
:10073C0005F00AC006F00BC007F00436049005362D
:10074C0006360736000E6A15006E000E6B15016E2C
:10075C00000E6C15026EFF0E6D15036E00C06AF074
:10076C0001C06BF002C06CF003C06DF004506A1154
:10077C00006E05506B11016E06506C11026E075025
:10078C006D11036E00C06AF001C06BF002C06CF01A
:10079C0003C06DF07F0E6D5D006E00C069F0010E40
:1007AC006D6F00C004F06AC000F06BC001F06CC04B
:1007BC0002F06DC003F0045007E0003600900136E3
:1007CC0002360336FF0FF8D700C06AF001C06BF099
:1007DC0002C06CF003C06DF066C0E1FF67C0E2FFC1
:1007EC006D51300FE66E664B672B800E6F19006EE5
:1007FC00800E010A005C08E3800E060A006E800E73
:10080C006F19005C01E30AD066C0E1FF67C0E2FF2C
:10081C002E0EE66E664B672B010E6E6F060E696F21
:10082C006951000A54E06D6B6AC000F06BC001F0B6
:10083C006CC002F06DC003F0003600900136023639
:10084C000336003600900136023603366A51002614
:10085C006B5101226C5102226D51032200C06AF0CF
:10086C0001C06BF002C06CF003C06DF06AC000F008
:10087C006BC001F06CC002F06DC003F0003600904C
:10088C0001360236033600C06AF001C06BF002C0BC
:10089C006CF003C06DF066C0E1FF67C0E2FF6D5104
:1008AC00300FE66E664B672B6E51000A0EE16F0738
:1008BC006F51000A0AE166C0E1FF67C0E2FF2E0E2D
:1008CC00E66E664B672B010E6E6F6907A9D7FF0E9C
:1008DC006625E96EFF0E6721EA6EEE50300A05E1DF
:1008EC00010E665F000E675BF2D7FF0E6625E96EA0
:1008FC00FF0E6721EA6EEE502E0A04E1010E665FD0
:10090C00000E675B6F51000A41E066C0E1FF67C0F3
:10091C00E2FF650EE66E664B672B800E6F19006E5C
:10092C00800E000A005C0BE266C0E1FF67C0E2FFCC
:10093C002D0EE66E664B672B6F5100086F6F6FC004
:10094C0069F0800E090A006E800E6F19005C0EE2D1
:10095C000A0E046E69C000F065DC66C0E1FF67C07A
:10096C00E2FF0050300FE66E664B672B0A0E046EEA
:10097C0069C000F057DC08C000F066C0E1FF67C03A
:10098C00E2FF0050300FE66E664B672B66C0E1FF4E
:0A099C0067C0E2FFE66A006A12007D
:1009A6000050086E0150006E016A026A036A0B6A03
:1009B6000C6A960E036E0A6A00C001F008C000F0C9
:0809C600086A026A81DC1200DC
:1009CE000450000A12E10550000A0FE10650000A19
:1009DE000CE10750000A09E1FF0E006EFF0E016EDA
:1009EE007F0E026EFF0E036EA8D0086A096A0750CA
:1009FE00D8B492EF05F00350D8B497EF05F002503B
:100A0E0006180A6E028E068E0E6A02C008F001C02B
:100A1E000CF000C00DF004500D5E0550D8A0053C42
:100A2E000C5E0650D8A0063C085E086A0C6A0D6A79
:100A3E00D8A029EF05F0D8900232013200320832E8
:100A4E00010E0E6E0750035ED8A036EF05F07E0E37
:100A5E000E240326D8B09CEF05F03CEF05F07E0E79
:100A6E000E240326D8A0A1EF05F0180E0B6E0D363E
:100A7E000C3608360036013602360E360450005E4D
:100A8E000550D8A0053C015E0650D8A0063C025E7B
:100A9E0006340E120EA057EF05F00D8062EF05F032
:100AAE00045000260550D8B0053C01260650D8B09B
:100ABE00062802260D900B2E3EEF05F088EF05F06E
:100ACE00D8900036013602360E360450005E0550C0
:100ADE00D8A0053C015E0650D8A0063C025E063446
:100AEE000E10010B0D26D8B00C2AD8B4082AD8A4A3
:100AFE0088EF05F008320C320D32032AD8B49CEF81
:100B0E0005F00AAE089E0850026E0C50016E0D5094
:100B1E00006EA4EF05F0010E84EC00F0A4EF05F0DA
:100B2E00020E25EC00F0A4EF05F0040E78EC00F0B8
:0C0B3E00A4EF05F0080E2CEC00F01200F3
:100B4A00C0EC06F092809282010EC26E0D0EC16E4A
:100B5A00AA0EC06ECBDC010E0001746F39EC00F0F6
:100B6A000C0E746F39EC00F0010E626F010E636FA8
:100B7A002E0E646F000E656F72DC060E0B6E130E7E
:100B8A000C6EAD0E0D6E0D2EFED70C2EFCD70B2E55
:100B9A00FAD700000000010E626F010E636F150E96
:100BAA00646F000E656F5BDC060E0B6E130E0C6E27
:100BBA00AD0E0D6E0D2EFED70C2EFCD70B2EFAD7CE
:100BCA0000000000010E626F010E636F210E646F58
:100BDA00000E656F44DC060E0B6E130E0C6EAD0E26
:100BEA000D6E0D2EFED70C2EFCD70B2EFAD7000059
:100BFA000000010E746F39EC00F0010E626F010EF5
:100C0A00636F390E646F000E656F29DC020E626F26
:100C1A00010E636F440E646F000E656F20DC030ED5
:100C2A00C26EC2A201D0FDD7C4CF03F0026AC3CFFD
:100C3A0000F0000E016E0250001203500112AEDEE7
:100C4A00000E046E000E056E300E066E810E076EE3
:100C5A0088EC00F0000E046EC00E056E7F0E066E64
:100C6A00880E076EAFDE00C062F001C063F002C0FA
:100C7A0064F003C065F04E0E0001666F000E676FE8
:100C8A0080DC526A010E626F050E636F4E0E646F4E
:100C9A00000E656F34EC02F0820E0C6EDD0E0D6EE6
:100CAA000D2EFED70C2EFCD700000000070EC26ED8
:100CBA00C2A201D0FDD7C4CF03F0026AC3CF00F0AD
:100CCA00000E016E025000120350011267DE000E80
:100CDA00046E000E056E300E066E810E076E88ECED
:100CEA0000F0000E046EC00E056E7F0E066E880EB2
:100CFA00076E68DE00C062F001C063F002C064F0F3
:100D0A0003C065F0580E0001666F000E676F39DC8C
:100D1A005C6A020E626F050E636F580E646F000EF6
:100D2A00656F34EC02F0820E0C6EDD0E0D6E0D2E28
:0E0D3A00FED70C2EFCD70000000071D7FFD7AB
:100D800010EE15F0380E006E010E016E480EF66E74
:0E0D90000D0EF76E000EF86E73EC02F01200FE
:0C0D4800496E696369616E646F2E2E00B5
:0D0D5400496E696369616E646F2E2E2E007A
:0B0D6100496E696369616E646F2E00CB
:050D6C00414E303A0089
:020D7100300050
:040D73004E614E007F
:050D7700414E313A007D
:040D7C00494E460096
:020000040030CA
:0E000000000C1F1EFF8381FF0FC00FE00F409A
:00000001FF
